{
  "contractName": "SecureGasSystem",
  "abi": [
    {
      "inputs": [],
      "stateMutability": "nonpayable",
      "type": "constructor"
    },
    {
      "anonymous": false,
      "inputs": [
        {
          "indexed": true,
          "internalType": "address",
          "name": "device",
          "type": "address"
        },
        {
          "indexed": false,
          "internalType": "string",
          "name": "deviceID",
          "type": "string"
        },
        {
          "indexed": false,
          "internalType": "string",
          "name": "location",
          "type": "string"
        }
      ],
      "name": "DeviceRegistered",
      "type": "event"
    },
    {
      "anonymous": false,
      "inputs": [
        {
          "indexed": true,
          "internalType": "address",
          "name": "device",
          "type": "address"
        },
        {
          "indexed": false,
          "internalType": "uint256",
          "name": "gasAmount",
          "type": "uint256"
        },
        {
          "indexed": false,
          "internalType": "uint256",
          "name": "timestamp",
          "type": "uint256"
        }
      ],
      "name": "GasDataSubmitted",
      "type": "event"
    },
    {
      "anonymous": false,
      "inputs": [
        {
          "indexed": true,
          "internalType": "address",
          "name": "device",
          "type": "address"
        },
        {
          "indexed": false,
          "internalType": "uint256",
          "name": "gasAmount",
          "type": "uint256"
        },
        {
          "indexed": false,
          "internalType": "string",
          "name": "riskLevel",
          "type": "string"
        },
        {
          "indexed": false,
          "internalType": "uint256",
          "name": "timestamp",
          "type": "uint256"
        }
      ],
      "name": "PredictionAdded",
      "type": "event"
    },
    {
      "anonymous": false,
      "inputs": [
        {
          "indexed": true,
          "internalType": "address",
          "name": "user",
          "type": "address"
        },
        {
          "indexed": false,
          "internalType": "uint256",
          "name": "amount",
          "type": "uint256"
        },
        {
          "indexed": false,
          "internalType": "uint256",
          "name": "timestamp",
          "type": "uint256"
        }
      ],
      "name": "TransactionRecorded",
      "type": "event"
    },
    {
      "inputs": [
        {
          "internalType": "address",
          "name": "",
          "type": "address"
        }
      ],
      "name": "devices",
      "outputs": [
        {
          "internalType": "address",
          "name": "deviceAddress",
          "type": "address"
        },
        {
          "internalType": "string",
          "name": "deviceID",
          "type": "string"
        },
        {
          "internalType": "string",
          "name": "location",
          "type": "string"
        },
        {
          "internalType": "bool",
          "name": "isRegistered",
          "type": "bool"
        }
      ],
      "stateMutability": "view",
      "type": "function",
      "constant": true
    },
    {
      "inputs": [
        {
          "internalType": "address",
          "name": "",
          "type": "address"
        }
      ],
      "name": "gasUsage",
      "outputs": [
        {
          "internalType": "uint256",
          "name": "",
          "type": "uint256"
        }
      ],
      "stateMutability": "view",
      "type": "function",
      "constant": true
    },
    {
      "inputs": [],
      "name": "owner",
      "outputs": [
        {
          "internalType": "address",
          "name": "",
          "type": "address"
        }
      ],
      "stateMutability": "view",
      "type": "function",
      "constant": true
    },
    {
      "inputs": [
        {
          "internalType": "address",
          "name": "",
          "type": "address"
        }
      ],
      "name": "predictions",
      "outputs": [
        {
          "internalType": "uint256",
          "name": "gasAmount",
          "type": "uint256"
        },
        {
          "internalType": "uint256",
          "name": "timestamp",
          "type": "uint256"
        },
        {
          "internalType": "string",
          "name": "riskLevel",
          "type": "string"
        }
      ],
      "stateMutability": "view",
      "type": "function",
      "constant": true
    },
    {
      "inputs": [
        {
          "internalType": "uint256",
          "name": "",
          "type": "uint256"
        }
      ],
      "name": "transactions",
      "outputs": [
        {
          "internalType": "address",
          "name": "user",
          "type": "address"
        },
        {
          "internalType": "uint256",
          "name": "amount",
          "type": "uint256"
        },
        {
          "internalType": "uint256",
          "name": "timestamp",
          "type": "uint256"
        },
        {
          "internalType": "bool",
          "name": "isSettled",
          "type": "bool"
        }
      ],
      "stateMutability": "view",
      "type": "function",
      "constant": true
    },
    {
      "inputs": [
        {
          "internalType": "address",
          "name": "_deviceAddress",
          "type": "address"
        },
        {
          "internalType": "string",
          "name": "_deviceID",
          "type": "string"
        },
        {
          "internalType": "string",
          "name": "_location",
          "type": "string"
        }
      ],
      "name": "registerDevice",
      "outputs": [],
      "stateMutability": "nonpayable",
      "type": "function"
    },
    {
      "inputs": [
        {
          "internalType": "uint256",
          "name": "_gasAmount",
          "type": "uint256"
        }
      ],
      "name": "submitGasData",
      "outputs": [],
      "stateMutability": "nonpayable",
      "type": "function"
    },
    {
      "inputs": [
        {
          "internalType": "uint256",
          "name": "_gasAmount",
          "type": "uint256"
        },
        {
          "internalType": "string",
          "name": "_riskLevel",
          "type": "string"
        }
      ],
      "name": "addPrediction",
      "outputs": [],
      "stateMutability": "nonpayable",
      "type": "function"
    },
    {
      "inputs": [
        {
          "internalType": "address",
          "name": "_user",
          "type": "address"
        },
        {
          "internalType": "uint256",
          "name": "_amount",
          "type": "uint256"
        }
      ],
      "name": "recordTransaction",
      "outputs": [],
      "stateMutability": "nonpayable",
      "type": "function"
    },
    {
      "inputs": [
        {
          "internalType": "uint256",
          "name": "_transactionId",
          "type": "uint256"
        }
      ],
      "name": "settleTransaction",
      "outputs": [],
      "stateMutability": "nonpayable",
      "type": "function"
    },
    {
      "inputs": [
        {
          "internalType": "address",
          "name": "_user",
          "type": "address"
        }
      ],
      "name": "getGasUsage",
      "outputs": [
        {
          "internalType": "uint256",
          "name": "",
          "type": "uint256"
        }
      ],
      "stateMutability": "view",
      "type": "function",
      "constant": true
    },
    {
      "inputs": [
        {
          "internalType": "address",
          "name": "_device",
          "type": "address"
        }
      ],
      "name": "getPrediction",
      "outputs": [
        {
          "internalType": "uint256",
          "name": "",
          "type": "uint256"
        },
        {
          "internalType": "string",
          "name": "",
          "type": "string"
        },
        {
          "internalType": "uint256",
          "name": "",
          "type": "uint256"
        }
      ],
      "stateMutability": "view",
      "type": "function",
      "constant": true
    },
    {
      "inputs": [],
      "name": "getTotalTransactions",
      "outputs": [
        {
          "internalType": "uint256",
          "name": "",
          "type": "uint256"
        }
      ],
      "stateMutability": "view",
      "type": "function",
      "constant": true
    },
    {
      "inputs": [
        {
          "internalType": "uint256",
          "name": "_transactionId",
          "type": "uint256"
        }
      ],
      "name": "getTransaction",
      "outputs": [
        {
          "internalType": "address",
          "name": "",
          "type": "address"
        },
        {
          "internalType": "uint256",
          "name": "",
          "type": "uint256"
        },
        {
          "internalType": "uint256",
          "name": "",
          "type": "uint256"
        },
        {
          "internalType": "bool",
          "name": "",
          "type": "bool"
        }
      ],
      "stateMutability": "view",
      "type": "function",
      "constant": true
    }
  ],
  "bytecode": "0x608060405234801561001057600080fd5b50336000806101000a81548173ffffffffffffffffffffffffffffffffffffffff021916908373ffffffffffffffffffffffffffffffffffffffff160217905550611a9a806100606000396000f3fe608060405234801561001057600080fd5b50600436106100ea5760003560e01c80636f6dfeb01161008c5780639ace38c2116100665780639ace38c21461025e578063b5c604ff14610291578063e7b4cac6146102af578063eacaced7146102e2576100ea565b80636f6dfeb0146101f45780638da5cb5b1461021057806398cd63421461022e576100ea565b806333ea3dc8116100c857806333ea3dc81461014357806335fa61fa146101765780633bab9f9f146101a85780636263a617146101c4576100ea565b806317ca06ab146100ef57806319062b8f1461010b57806320912b5a14610127575b600080fd5b61010960048036038101906101049190611087565b610314565b005b610125600480360381019061012091906110c7565b6104d8565b005b610141600480360381019061013c91906110c7565b6105ee565b005b61015d600480360381019061015891906110c7565b610726565b60405161016d949392919061112d565b60405180910390f35b610190600480360381019061018b9190611172565b61084d565b60405161019f9392919061122f565b60405180910390f35b6101c260048036038101906101bd91906113a2565b6108ff565b005b6101de60048036038101906101d99190611172565b610a6b565b6040516101eb91906113fe565b60405180910390f35b61020e60048036038101906102099190611419565b610ab4565b005b610218610ca6565b60405161022591906114a4565b60405180910390f35b61024860048036038101906102439190611172565b610cca565b60405161025591906113fe565b60405180910390f35b610278600480360381019061027391906110c7565b610ce2565b604051610288949392919061112d565b60405180910390f35b610299610d4f565b6040516102a691906113fe565b60405180910390f35b6102c960048036038101906102c49190611172565b610d5c565b6040516102d994939291906114bf565b60405180910390f35b6102fc60048036038101906102f79190611172565b610ec9565b60405161030b93929190611512565b60405180910390f35b60008054906101000a900473ffffffffffffffffffffffffffffffffffffffff1673ffffffffffffffffffffffffffffffffffffffff163373ffffffffffffffffffffffffffffffffffffffff16146103a2576040517f08c379a00000000000000000000000000000000000000000000000000000000081526004016103999061159c565b60405180910390fd5b600460405180608001604052808473ffffffffffffffffffffffffffffffffffffffff16815260200183815260200142815260200160001515815250908060018154018082558091505060019003906000526020600020906004020160009091909190915060008201518160000160006101000a81548173ffffffffffffffffffffffffffffffffffffffff021916908373ffffffffffffffffffffffffffffffffffffffff160217905550602082015181600101556040820151816002015560608201518160030160006101000a81548160ff02191690831515021790555050508173ffffffffffffffffffffffffffffffffffffffff167fb2c18492dccd88fc8c1b7632a61134a8e61edbdbba5e9e2aaad535679a663b2082426040516104cc9291906115bc565b60405180910390a25050565b60008054906101000a900473ffffffffffffffffffffffffffffffffffffffff1673ffffffffffffffffffffffffffffffffffffffff163373ffffffffffffffffffffffffffffffffffffffff1614610566576040517f08c379a000000000000000000000000000000000000000000000000000000000815260040161055d9061159c565b60405180910390fd5b60048054905081106105ad576040517f08c379a00000000000000000000000000000000000000000000000000000000081526004016105a490611631565b60405180910390fd5b6001600482815481106105c3576105c2611651565b5b906000526020600020906004020160030160006101000a81548160ff02191690831515021790555050565b600160003373ffffffffffffffffffffffffffffffffffffffff1673ffffffffffffffffffffffffffffffffffffffff16815260200190815260200160002060030160009054906101000a900460ff1661067d576040517f08c379a0000000000000000000000000000000000000000000000000000000008152600401610674906116cc565b60405180910390fd5b80600260003373ffffffffffffffffffffffffffffffffffffffff1673ffffffffffffffffffffffffffffffffffffffff16815260200190815260200160002060008282546106cc919061171b565b925050819055503373ffffffffffffffffffffffffffffffffffffffff167fa3bacc53c056aba49d2c151ee98c7cc0c3983338e981d4e838643fa9b9b60ca5824260405161071b9291906115bc565b60405180910390a250565b6000806000806004805490508510610773576040517f08c379a000000000000000000000000000000000000000000000000000000000815260040161076a90611631565b60405180910390fd5b60006004868154811061078957610788611651565b5b90600052602060002090600402016040518060800160405290816000820160009054906101000a900473ffffffffffffffffffffffffffffffffffffffff1673ffffffffffffffffffffffffffffffffffffffff1673ffffffffffffffffffffffffffffffffffffffff16815260200160018201548152602001600282015481526020016003820160009054906101000a900460ff161515151581525050905080600001518160200151826040015183606001519450945094509450509193509193565b600360205280600052604060002060009150905080600001549080600101549080600201805461087c9061177e565b80601f01602080910402602001604051908101604052809291908181526020018280546108a89061177e565b80156108f55780601f106108ca576101008083540402835291602001916108f5565b820191906000526020600020905b8154815290600101906020018083116108d857829003601f168201915b5050505050905083565b600160003373ffffffffffffffffffffffffffffffffffffffff1673ffffffffffffffffffffffffffffffffffffffff16815260200190815260200160002060030160009054906101000a900460ff1661098e576040517f08c379a0000000000000000000000000000000000000000000000000000000008152600401610985906116cc565b60405180910390fd5b604051806060016040528083815260200142815260200182815250600360003373ffffffffffffffffffffffffffffffffffffffff1673ffffffffffffffffffffffffffffffffffffffff16815260200190815260200160002060008201518160000155602082015181600101556040820151816002019081610a11919061195b565b509050503373ffffffffffffffffffffffffffffffffffffffff167f3d02de7576cbb55bcd4f37609bb4e5da9b797837f98e8688b571de44db6c9f5c838342604051610a5f93929190611512565b60405180910390a25050565b6000600260008373ffffffffffffffffffffffffffffffffffffffff1673ffffffffffffffffffffffffffffffffffffffff168152602001908152602001600020549050919050565b60008054906101000a900473ffffffffffffffffffffffffffffffffffffffff1673ffffffffffffffffffffffffffffffffffffffff163373ffffffffffffffffffffffffffffffffffffffff1614610b42576040517f08c379a0000000000000000000000000000000000000000000000000000000008152600401610b399061159c565b60405180910390fd5b60405180608001604052808473ffffffffffffffffffffffffffffffffffffffff16815260200183815260200182815260200160011515815250600160008573ffffffffffffffffffffffffffffffffffffffff1673ffffffffffffffffffffffffffffffffffffffff16815260200190815260200160002060008201518160000160006101000a81548173ffffffffffffffffffffffffffffffffffffffff021916908373ffffffffffffffffffffffffffffffffffffffff1602179055506020820151816001019081610c17919061195b565b506040820151816002019081610c2d919061195b565b5060608201518160030160006101000a81548160ff0219169083151502179055509050508273ffffffffffffffffffffffffffffffffffffffff167f25bec5442671a5d594ede63d811665f791f5152b85d1ca34a8c1630a11af352a8383604051610c99929190611a2d565b60405180910390a2505050565b60008054906101000a900473ffffffffffffffffffffffffffffffffffffffff1681565b60026020528060005260406000206000915090505481565b60048181548110610cf257600080fd5b90600052602060002090600402016000915090508060000160009054906101000a900473ffffffffffffffffffffffffffffffffffffffff16908060010154908060020154908060030160009054906101000a900460ff16905084565b6000600480549050905090565b60016020528060005260406000206000915090508060000160009054906101000a900473ffffffffffffffffffffffffffffffffffffffff1690806001018054610da59061177e565b80601f0160208091040260200160405190810160405280929190818152602001828054610dd19061177e565b8015610e1e5780601f10610df357610100808354040283529160200191610e1e565b820191906000526020600020905b815481529060010190602001808311610e0157829003601f168201915b505050505090806002018054610e339061177e565b80601f0160208091040260200160405190810160405280929190818152602001828054610e5f9061177e565b8015610eac5780601f10610e8157610100808354040283529160200191610eac565b820191906000526020600020905b815481529060010190602001808311610e8f57829003601f168201915b5050505050908060030160009054906101000a900460ff16905084565b60006060600080600360008673ffffffffffffffffffffffffffffffffffffffff1673ffffffffffffffffffffffffffffffffffffffff1681526020019081526020016000206040518060600160405290816000820154815260200160018201548152602001600282018054610f3e9061177e565b80601f0160208091040260200160405190810160405280929190818152602001828054610f6a9061177e565b8015610fb75780601f10610f8c57610100808354040283529160200191610fb7565b820191906000526020600020905b815481529060010190602001808311610f9a57829003601f168201915b5050505050815250509050806000015181604001518260200151935093509350509193909250565b6000604051905090565b600080fd5b600080fd5b600073ffffffffffffffffffffffffffffffffffffffff82169050919050565b600061101e82610ff3565b9050919050565b61102e81611013565b811461103957600080fd5b50565b60008135905061104b81611025565b92915050565b6000819050919050565b61106481611051565b811461106f57600080fd5b50565b6000813590506110818161105b565b92915050565b6000806040838503121561109e5761109d610fe9565b5b60006110ac8582860161103c565b92505060206110bd85828601611072565b9150509250929050565b6000602082840312156110dd576110dc610fe9565b5b60006110eb84828501611072565b91505092915050565b6110fd81611013565b82525050565b61110c81611051565b82525050565b60008115159050919050565b61112781611112565b82525050565b600060808201905061114260008301876110f4565b61114f6020830186611103565b61115c6040830185611103565b611169606083018461111e565b95945050505050565b60006020828403121561118857611187610fe9565b5b60006111968482850161103c565b91505092915050565b600081519050919050565b600082825260208201905092915050565b60005b838110156111d95780820151818401526020810190506111be565b60008484015250505050565b6000601f19601f8301169050919050565b60006112018261119f565b61120b81856111aa565b935061121b8185602086016111bb565b611224816111e5565b840191505092915050565b60006060820190506112446000830186611103565b6112516020830185611103565b818103604083015261126381846111f6565b9050949350505050565b600080fd5b600080fd5b7f4e487b7100000000000000000000000000000000000000000000000000000000600052604160045260246000fd5b6112af826111e5565b810181811067ffffffffffffffff821117156112ce576112cd611277565b5b80604052505050565b60006112e1610fdf565b90506112ed82826112a6565b919050565b600067ffffffffffffffff82111561130d5761130c611277565b5b611316826111e5565b9050602081019050919050565b82818337600083830152505050565b6000611345611340846112f2565b6112d7565b90508281526020810184848401111561136157611360611272565b5b61136c848285611323565b509392505050565b600082601f8301126113895761138861126d565b5b8135611399848260208601611332565b91505092915050565b600080604083850312156113b9576113b8610fe9565b5b60006113c785828601611072565b925050602083013567ffffffffffffffff8111156113e8576113e7610fee565b5b6113f485828601611374565b9150509250929050565b60006020820190506114136000830184611103565b92915050565b60008060006060848603121561143257611431610fe9565b5b60006114408682870161103c565b935050602084013567ffffffffffffffff81111561146157611460610fee565b5b61146d86828701611374565b925050604084013567ffffffffffffffff81111561148e5761148d610fee565b5b61149a86828701611374565b9150509250925092565b60006020820190506114b960008301846110f4565b92915050565b60006080820190506114d460008301876110f4565b81810360208301526114e681866111f6565b905081810360408301526114fa81856111f6565b9050611509606083018461111e565b95945050505050565b60006060820190506115276000830186611103565b818103602083015261153981856111f6565b90506115486040830184611103565b949350505050565b7f4f6e6c79206f776e65722063616e206578656375746520746869730000000000600082015250565b6000611586601b836111aa565b915061159182611550565b602082019050919050565b600060208201905081810360008301526115b581611579565b9050919050565b60006040820190506115d16000830185611103565b6115de6020830184611103565b9392505050565b7f496e76616c6964207472616e73616374696f6e20494400000000000000000000600082015250565b600061161b6016836111aa565b9150611626826115e5565b602082019050919050565b6000602082019050818103600083015261164a8161160e565b9050919050565b7f4e487b7100000000000000000000000000000000000000000000000000000000600052603260045260246000fd5b7f446576696365206e6f7420726567697374657265640000000000000000000000600082015250565b60006116b66015836111aa565b91506116c182611680565b602082019050919050565b600060208201905081810360008301526116e5816116a9565b9050919050565b7f4e487b7100000000000000000000000000000000000000000000000000000000600052601160045260246000fd5b600061172682611051565b915061173183611051565b9250828201905080821115611749576117486116ec565b5b92915050565b7f4e487b7100000000000000000000000000000000000000000000000000000000600052602260045260246000fd5b6000600282049050600182168061179657607f821691505b6020821081036117a9576117a861174f565b5b50919050565b60008190508160005260206000209050919050565b60006020601f8301049050919050565b600082821b905092915050565b6000600883026118117fffffffffffffffffffffffffffffffffffffffffffffffffffffffffffffffff826117d4565b61181b86836117d4565b95508019841693508086168417925050509392505050565b6000819050919050565b600061185861185361184e84611051565b611833565b611051565b9050919050565b6000819050919050565b6118728361183d565b61188661187e8261185f565b8484546117e1565b825550505050565b600090565b61189b61188e565b6118a6818484611869565b505050565b5b818110156118ca576118bf600082611893565b6001810190506118ac565b5050565b601f82111561190f576118e0816117af565b6118e9846117c4565b810160208510156118f8578190505b61190c611904856117c4565b8301826118ab565b50505b505050565b600082821c905092915050565b600061193260001984600802611914565b1980831691505092915050565b600061194b8383611921565b9150826002028217905092915050565b6119648261119f565b67ffffffffffffffff81111561197d5761197c611277565b5b611987825461177e565b6119928282856118ce565b600060209050601f8311600181146119c557600084156119b3578287015190505b6119bd858261193f565b865550611a25565b601f1984166119d3866117af565b60005b828110156119fb578489015182556001820191506020850194506020810190506119d6565b86831015611a185784890151611a14601f891682611921565b8355505b6001600288020188555050505b505050505050565b60006040820190508181036000830152611a4781856111f6565b90508181036020830152611a5b81846111f6565b9050939250505056fea264697066735822122029ff5b0ffef15de23cdeaf08d2011b0b3175fbe07ebbf4ea34b0f29cc0d6228364736f6c63430008120033",
  "immutableReferences": {},
  "source": "// SPDX-License-Identifier: MIT\r\npragma solidity ^0.8.0;\r\n\r\ncontract SecureGasSystem {\r\n    \r\n    address public owner;\r\n\r\n    // IoT Device Structure\r\n    struct IoTDevice {\r\n        address deviceAddress;\r\n        string deviceID;\r\n        string location;\r\n        bool isRegistered;\r\n    }\r\n    \r\n    // Prediction Structure\r\n    struct PredictionData {\r\n        uint256 gasAmount; // Predicted gas amount in units\r\n        uint256 timestamp;\r\n        string riskLevel;\r\n    }\r\n    \r\n    // Transaction Structure\r\n    struct GasTransaction {\r\n        address user;\r\n        uint256 amount;\r\n        uint256 timestamp;\r\n        bool isSettled;\r\n    }\r\n    \r\n    // Mapping for registered IoT Devices\r\n    mapping(address => IoTDevice) public devices;\r\n    // Mapping for user gas data and predictions\r\n    mapping(address => uint256) public gasUsage;\r\n    mapping(address => PredictionData) public predictions;\r\n    // Array of transactions\r\n    GasTransaction[] public transactions;\r\n\r\n    // Events\r\n    event DeviceRegistered(address indexed device, string deviceID, string location);\r\n    event GasDataSubmitted(address indexed device, uint256 gasAmount, uint256 timestamp);\r\n    event PredictionAdded(address indexed device, uint256 gasAmount, string riskLevel, uint256 timestamp);\r\n    event TransactionRecorded(address indexed user, uint256 amount, uint256 timestamp);\r\n\r\n    constructor() {\r\n        owner = msg.sender;\r\n    }\r\n\r\n    modifier onlyOwner() {\r\n        require(msg.sender == owner, \"Only owner can execute this\");\r\n        _;\r\n    }\r\n\r\n    modifier onlyRegisteredDevice() {\r\n        require(devices[msg.sender].isRegistered, \"Device not registered\");\r\n        _;\r\n    }\r\n\r\n    // Register IoT Device by the owner\r\n    function registerDevice(address _deviceAddress, string memory _deviceID, string memory _location) public onlyOwner {\r\n        devices[_deviceAddress] = IoTDevice(_deviceAddress, _deviceID, _location, true);\r\n        emit DeviceRegistered(_deviceAddress, _deviceID, _location);\r\n    }\r\n\r\n    // Submit gas usage data by IoT Device\r\n    function submitGasData(uint256 _gasAmount) public onlyRegisteredDevice {\r\n        gasUsage[msg.sender] += _gasAmount;\r\n        emit GasDataSubmitted(msg.sender, _gasAmount, block.timestamp);\r\n    }\r\n\r\n    // Add Prediction data by AI Model\r\n    function addPrediction(uint256 _gasAmount, string memory _riskLevel) public onlyRegisteredDevice {\r\n        predictions[msg.sender] = PredictionData(_gasAmount, block.timestamp, _riskLevel);\r\n        emit PredictionAdded(msg.sender, _gasAmount, _riskLevel, block.timestamp);\r\n    }\r\n\r\n    // Record a transaction for gas usage or payment\r\n    function recordTransaction(address _user, uint256 _amount) public onlyOwner {\r\n        transactions.push(GasTransaction(_user, _amount, block.timestamp, false));\r\n        emit TransactionRecorded(_user, _amount, block.timestamp);\r\n    }\r\n\r\n    // Mark a transaction as settled\r\n    function settleTransaction(uint256 _transactionId) public onlyOwner {\r\n        require(_transactionId < transactions.length, \"Invalid transaction ID\");\r\n        transactions[_transactionId].isSettled = true;\r\n    }\r\n\r\n    // Get a user's gas usage\r\n    function getGasUsage(address _user) public view returns (uint256) {\r\n        return gasUsage[_user];\r\n    }\r\n\r\n    // Get prediction data for a device\r\n    function getPrediction(address _device) public view returns (uint256, string memory, uint256) {\r\n        PredictionData memory prediction = predictions[_device];\r\n        return (prediction.gasAmount, prediction.riskLevel, prediction.timestamp);\r\n    }\r\n\r\n    // Get total transactions\r\n    function getTotalTransactions() public view returns (uint256) {\r\n        return transactions.length;\r\n    }\r\n\r\n    // Get transaction details by ID\r\n    function getTransaction(uint256 _transactionId) public view returns (address, uint256, uint256, bool) {\r\n        require(_transactionId < transactions.length, \"Invalid transaction ID\");\r\n        GasTransaction memory transaction = transactions[_transactionId];\r\n        return (transaction.user, transaction.amount, transaction.timestamp, transaction.isSettled);\r\n    }\r\n}\r\n",
  "sourcePath": "E:\\Bc\\truffle\\contracts\\SecureGasSystem.sol",
  "compiler": {
    "name": "solc",
    "version": "0.8.18+commit.87f61d96.Emscripten.clang"
  },
  "schemaVersion": "3.4.16",
  "updatedAt": "2024-12-03T05:31:17.484Z",
  "networkType": "ethereum",
  "devdoc": {
    "kind": "dev",
    "methods": {},
    "version": 1
  },
  "userdoc": {
    "kind": "user",
    "methods": {},
    "version": 1
  }
}